:020000040800F2
:10000000A006002055020008111C0008DF1B000894
:100010000D1C00087D0B0008F533000800000000EF
:10002000000000000000000000000000E51E0008C5
:100030000110000800000000291D00086D2D0008B7
:100040006F0200086F0200086F0200086F020008CC
:100050006F0200086F0200086F0200086F020008BC
:100060006F0200086F0200086F0200086F020008AC
:100070006F0200086F0200086F0200086F0200089C
:100080006F0200086F0200086F0200086F0200088C
:100090006F0200086F0200086F0200086F0200087C
:1000A0006F0200086F0200086F0200086F0200086C
:1000B0006F0200086F0200086F0200086F0200085C
:1000C0006F0200086F0200086F0200086F0200084C
:1000D0006F020008B1300008B53000086F02000858
:1000E0006F0200086F0200086F02000849443A32AC
:1000F0003030300D0A4E616D653A466C6578453397
:1001000031300D0A536F66745665723A56312E308F
:100110002E302E302D30303836320D0A436F6D7050
:10012000696C6520446174653A323031362D303463
:100130002D32382031313A35303A33300D0A200033
:1001400000000000000000000000000000000000AF
:10015000000000000000000000000000000000009F
:10016000000000000000000000000000000000008F
:10017000000000000000000000000000000000007F
:10018000000000000000000000000000000000006F
:10019000000000000000000000000000000000005F
:1001A000000000000000000000000000000000004F
:1001B000000000000000000000000000000000003F
:1001C000000000000000000000000000000000002F
:1001D000000000000000000000000000000000001F
:1001E000000000000000000000000000000000000F
:1001F00000000000000000000000000000000000FF
:1002000000000000000000000000000000000000EE
:1002100000000000000000000000000000000000DE
:1002200000000000000000000000000000000000CE
:1002300000000000000000000000000000000000BE
:10024000DFF80CD000F0A4F900480047313900086D
:10025000A00600200648804706480047FEE7FEE764
:10026000FEE7FEE7FEE7FEE7FEE7FEE7FEE7FEE766
:10027000B52D00084102000840EA01039B0703D0A6
:1002800009E008C9121F08C0042AFAD203E011F8D5
:10029000013B00F8013B521EF9D270472DE9FE4F99
:1002A00081EA030404F0004421F0004100944FF07F
:1002B000000B23F0004350EA01045ED052EA03042D
:1002C0005BD0C3F30A54C1F30A552C44A4F2F334AF
:1002D0000194A0FB0254C1F3130141F48011C3F354
:1002E000130343F4801301FB024400FB034E840A12
:1002F000970A44EA815447EA8357A4FB07680295AA
:100300008D0A05FB07854FEA932C04FB0C54270547
:10031000029D4FEA065847EA1637B5EB08056EEB23
:10032000070C870E920E47EA811742EA8312A7FB59
:100330000201B6EB0B0164EB00042B0D43EA0C3316
:100340005E1844EB1C50DA465146E7FB0201C5F348
:1003500013044FEA0B3343EA14534FEA0432019C6F
:1003600043EA0603A4F10C040294009CCDE900B416
:1003700000F0C0F803B0BDE8F08F00200146F9E7B7
:100380002DE9F04D81EA030404F0004B21F0004513
:1003900014464FF0000A23F0004150EA050220D035
:1003A00054EA01021DD0C5F30A570246C5F31303F0
:1003B000C1F31300C1F30A5640F4801543F48013CF
:1003C000A7EB0608101BD64608F2FD3873EB0500B4
:1003D00002D308F1010801E092185B41B8F1000F67
:1003E00003DA00200146BDE8F08D00204FF48011B3
:1003F000064684460EE0171B73EB050705D3121B58
:1004000063EB050306434CEA010C49084FEA300050
:1004100092185B4150EA0107EDD152EA030012D075
:1004200082EA040083EA0501084305D0101BAB41B2
:1004300006D20122002306E000224FF0004302E032
:100440006FF0010253101AEB06004CEB085110EB51
:100450000A0041EB0B01BDE8F04D00F03CB80EB5D1
:1004600040F2334102910021CDE900110A460B46CA
:1004700000F040F803B000BD70B5C1F30A5201F0BE
:1004800000450024C1F3130140F2FF3341F4801111
:100490009A4201DA002070BD40F233439A42A2F240
:1004A000334203DC524200F006F800E090402C4357
:1004B000F1D0404270BD202A04DB203A21FA02F03C
:1004C0000021704721FA02F3D040C2F1200291408E
:1004D00008431946704710B5141E73F1000408DA7A
:1004E000401C41F1000192185B411A4301D120F0F8
:1004F000010010BD2DE9F04D92469B4611B1B1FAB5
:1005000081F202E0B0FA80F22032904600F052F818
:1005100004460F4640EA0A0041EA0B0153465A4698
:10052000084313D0114653EA010019D0C8F1400224
:100530005046FFF7C0FF05460E4650465946424614
:1005400000F038F8084305D0012004E02046394681
:10055000BDE8F08D0020054346EAE0762C433743A2
:100560000A986305E40AA0EB08000022FD0A44EAA9
:1005700047540A3002D500200146E9E70105101969
:100580006941DDE9084500196941BDE8F04DA2E780
:10059000064C074D06E0E06840F0010394E80700D0
:1005A00098471034AC42F6D3FFF74EFE7C3B000870
:1005B0009C3B0008202A04DB203A00FA02F10020CC
:1005C00070479140C2F1200320FA03F31943904091
:1005D0007047002001E0411C88B20128FBDB704716
:1005E00008B50121042001F0CDFB4FF46060ADF8A7
:1005F000000003208DF8020010208DF803006946EA
:10060000014801F0DDF808BD000801402DE9F04F78
:1006100085B005460E4693461C464FF08041314852
:10062000CDE902102F46B04600222F4B38464146F6
:10063000FFF7A6FE0746884638464146DDE9022315
:10064000FFF72CFE0746884638464146FFF714FF61
:100650000190DDF80490C9F30D0901984FEAA03A22
:10066000CAF30D0A0E9840F4404004904FF4807095
:1006700000F0A0F84FF4045000F09CF8BBF1000F1C
:100680000CD149F480494AF4804A484600F092F877
:10069000504600F08FF8049800F08CF8BBF1010F81
:1006A0000CD149F400494AF4004A484600F082F867
:1006B000504600F07FF8049800F07CF81CB942F234
:1006C000020000F077F8022C03D142F2280000F07B
:1006D00071F8012C02D1600300F06CF805B0BDE8A0
:1006E000F08F0000E17A644180842E412DE9F04FC3
:1006F00085B005460E4693461C464FF080412B4878
:10070000CDE902102F46B0460022294B384641461B
:10071000FFF736FE0746884638464146DDE90223A4
:10072000FFF7BCFD0746884638464146FFF7A4FE62
:100730000190DDF80490C9F30D0901984FEAA03A41
:10074000CAF30D0A0E9840F440400490BBF1000F2C
:1007500009D149F480494AF4804A484600F02AF811
:10076000504600F027F8BBF1010F0CD149F40049C5
:100770004AF4004A484600F01DF8504600F01AF8C6
:10078000049800F017F81CB942F2020000F012F8C9
:10079000022C03D142F2280000F00CF8012C02D107
:1007A000600300F007F805B0BDE8F08FE17A64411E
:1007B00080842E4170B504464FF400611A4801F060
:1007C000DEF84FF48061184801F0D9F84FF48061E9
:1007D000154801F0D2F800251EE004F4004028B1CD
:1007E0004FF40071104801F0CAF804E04FF40071B2
:1007F0000D4801F0C2F8FFF7ECFE4FF400610A4823
:1008000001F0BBF8FFF7E5FE4FF40061064801F088
:10081000B6F86400681CC5B2102DDEDB4FF48061B1
:10082000014801F0ACF870BD0008014000B585B08A
:100830002B4800F07BF8012144F21D2001F0A2FAC0
:100840004FF4004001F072FA0121084601F07AFAF3
:100850000020009001208DF804008DF805004FF471
:10086000602002900020039004208DF8100069465B
:100870001B4800F09DF8062301220021184800F0D3
:10088000BFF8062302220121154800F0B9F806231B
:1008900003220221124800F0B3F8062304220321A8
:1008A0000F4800F0ADF801210D4800F034F80121A7
:1008B0000B4800F025F80A4800F0FEF800BF084891
:1008C00000F06CF80028FAD1054800F005F900BFE7
:1008D000034800F059F80028FAD105B000BD000027
:1008E0000024014008B50F20ADF8000000208DF86D
:1008F00003006946014800F063FF08BD000801409D
:1009000021B1826842F00102826003E0826822F035
:1009100001028260704721B1826842F48072826075
:1009200003E0826822F480728260704710B504464A
:100930001248844208D10121401501F033FA002108
:10094000601501F02FFA17E00D48844208D101210B
:10095000001501F027FA0021201501F023FA0BE021
:100960000848844208D10121C80301F01BFA002184
:100970004FF4004001F016FA10BD000000240140C1
:1009800000280140003C0140014600208A6802F036
:1009900004020AB1012000E0002070470146002057
:1009A0008A6802F008020AB1012000E000207047C6
:1009B00030B502460020002350680F4C20400D79CE
:1009C0000C6844EA05242043506090680B4C20409A
:1009D000D1E902542C434D7944EA45042043906008
:1009E000D06A20F470000C7C641EE4B2234340EA19
:1009F0000350D06230BD0000FFFEF0FFFDF7F1FFB5
:100A0000F0B504460D4600200021092D11DDE068F7
:100A1000A5F10A0606EB4607072606FA07F1884302
:100A2000A5F10A0606EB460603FA06F10843E06064
:100A30000CE0206905EB4507072606FA07F1884315
:100A400005EB450603FA06F108432061072A0FDA91
:100A5000606B561E06EB86071F2606FA07F18843D1
:100A6000561E06EB860605FA06F10843606322E08F
:100A70000D2A0FDA206BD61F06EB86071F2606FA13
:100A800007F18843D61F06EB860605FA06F10843F0
:100A9000206310E0E06AA2F10D0606EB86071F2630
:100AA00006FA07F18843A2F10D0606EB860605FA61
:100AB00006F10843E062F0BD816841F00801816001
:100AC000704721B1826842F4A002826003E082682C
:100AD00022F4A00282607047816841F004018160C5
:100AE0007047000010B51021084800F03DFF58B9CC
:100AF000022001F0C1FC032001F0C4FCFF2001F042
:100B0000B1FC04200249087010BD0000000801403B
:100B10003000002010B501F065F8FFF761FD00F02E
:100B20007DFF02F085FA02F005F900214FF4E15053
:100B300002F070F90A2001F0ABFC02F0B3F910BD2D
:100B400010B500F04FF900F0ABFC02F0A3FA10BDB5
:100B500010B501F053FD01F035F9012144F21D00FB
:100B600001F010F90121044800F0B6FE012148040B
:100B700001F0F8F810BD00000002300000BFFEE7F1
:100B800010B51A48008800282CDD1948008820B9C3
:100B90004FF48051174800F0F2FE154800880128F4
:100BA00003D10103134800F0E8FE11480088022831
:100BB00012D100200E4908800C480088FF280BD075
:100BC0000A480088401E80B20849088020B94FF4C6
:100BD0008051084800F0D1FE05480088401C0449B7
:100BE000088002E000200249088010BD7C0000203F
:100BF00092000020000C01401F49096801EB001120
:100C00004979012913D11C49096801EB0011C96810
:100C1000194A126802EB00129268B1FBF2F302FB70
:100C20001311154A126802EB0012D1600CE0124950
:100C3000096801EB00114979022905D100210E4A0A
:100C4000126802EB0012D1600C4901EBE001097857
:100C500000F007020A4B9A5C9143084A02EBE0025B
:100C6000117041B9194601EBE0010A78054909788C
:100C70009143044A11707047A000002095000020A5
:100C8000633A00089400002070B5002500244A480B
:100C90000078012800D170BDFFF724FF4748007895
:100CA00030B1012820D0022873D0032870D151E040
:100CB00001F028F904465CB9002001F0E3FB0120B3
:100CC0003E49087000203E4908703E4908700AE01D
:100CD000012C03D107203949087004E0032C02D10C
:100CE00002203649087064E002F018FD36490870A9
:100CF0000846007808B33548406928B13448007880
:100D000010B903202D4908702E48007808BB3048E0
:100D10000078F0B901202F49087020212E4800F0FA
:100D20002EFE012027490870284A928991B2274A4D
:100D3000128990B202F068FE0BE00020244908708E
:100D4000204908702021244800F017FE0020234984
:100D500008802EE0224801880088401C204A10802C
:100D60001A484069814211D90120144908700020B5
:100D70001A490880134908702021174800F0FDFD2A
:100D800000201749088001201149087011E000E097
:100D90000EE0032001F076FB20210F4800F0EDFD6E
:100DA00040210D4800F0E9FD00200C49088000E0DA
:100DB00000BF00BF00BF6EE73200002031000020FE
:100DC000630000203A00002064000020DC000020C6
:100DD000660000203B000020000801401A010020AE
:100DE0006800002010B50020044908700448012361
:100DF0000A22052144680348A04710BD31000020A5
:100E0000A4000020890C000821B1026842F0010210
:100E1000026004E002684FF6FE731A4002607047F9
:100E200000B58BB0114800F027F811480090114828
:100E30000190002002902820039000200490802040
:100E40000590400006908000079020200890000246
:100E5000099000200A906946044800F0B3F8002188
:100E60000248FFF7D1FF0BB000BD000008000240B0
:100E70004C2401405002002001684FF6FE721140E0
:100E800001600021016041608160C1604B4988427E
:100E900008D14A490839496841F00F01474A083AE0
:100EA00051608AE045491431884208D143490839E4
:100EB000496841F0F001414A083A51607DE03F49FC
:100EC0002831884208D13D490839496841F47061A8
:100ED0003A4A083A516070E038493C31884208D1BA
:100EE00036490839496841F47041344A083A51603A
:100EF00063E032495031884208D1304908394968A5
:100F000041F470212D4A083A516056E02B49643172
:100F1000884208D129490839496841F47001274AB3
:100F2000083A516049E025497831884208D123497F
:100F30000839496841F07061204A083A51603CE044
:100F40001F49884206D1011F096841F00F01021FA5
:100F5000116032E01A491431884208D11849091F3A
:100F6000096841F0F001164A121F116025E014498A
:100F70002831884208D11249091F096841F470617B
:100F80000F4A121F116018E00D493C31884208D108
:100F90000B49091F096841F47041094A121F116089
:100FA0000BE007495031884207D10549091F0968FC
:100FB00041F47021024A121F11607047080002407C
:100FC0000804024010B50022026847F6F0739A4305
:100FD0000C6A8B6823430C6923434C6923438C6957
:100FE0002343CC6923434C6A23438C6A23431A432B
:100FF0000260CB6843600B6883604B68C36010BDC0
:101000007047000008B500200090FB4800780B28CE
:101010007AD2DFE800F0194C7AA706C2F0EEEDECC8
:10102000EB00F64800788DF80300F44840788DF81E
:101030000200F248807840F020008DF80100EF486F
:10104000C0788DF8000085E1ED4800884FF47A7192
:1010500090FBF1F0EB49085C8DF80300E84800884C
:10106000642190FBF1F00A2190FBF1F201FB1200E8
:10107000E449085C40F020008DF80200E048008858
:101080000A2190FBF1F090FBF1F201FB1200DD4927
:10109000085C8DF80100DA4800880A2190FBF1F223
:1010A00001FB1200D749085C8DF8000052E19E2038
:1010B0008DF80300D448006842F21071B0FBF1F0E3
:1010C000D049085C8DF80200CF4800684FF47A716F
:1010D000B0FBF1F00A21B0FBF1F201FB1200C949AB
:1010E000085C40F020008DF80100C74800686421CA
:1010F000B0FBF1F00A21B0FBF1F201FB1200C14993
:10110000085C8DF8000025E123E1C2208DF8030082
:10111000BD48406842F21071B0FBF1F0B949085C7B
:101120008DF80200B84840684FF47A71B0FBF1F0D6
:101130000A21B0FBF1F201FB1200B249085C40F059
:1011400020008DF80100B04840686421B0FBF1F048
:101150000A21B0FBF1F201FB1200AA49085C8DF8EC
:101160000000F7E0CB208DF8030008208DF8020086
:10117000A64800780A2190FBF1F0A249085C8DF89E
:101180000100A24800780A2190FBF1F201FB120055
:101190009C49085C8DF80000DCE08F208DF803008E
:1011A000994880684FF47A71B0FBF1F09549085C7A
:1011B0008DF80200944880686421B0FBF1F00A21A8
:1011C000B0FBF1F201FB12008E49085C8DF80100C2
:1011D0008D4880680A21B0FBF1F0B0FBF1F201FB11
:1011E00012008849085C8DF80000B3E0A7E07FE0BA
:1011F00059E033E0FFE7844840694FF47A71B0FB6F
:10120000F1F08049085C8DF803007F484069642153
:10121000B0FBF1F00A21B0FBF1F201FB12007949B9
:10122000085C40F020008DF80200774840690A21F0
:10123000B0FBF1F0B0FBF1F201FB12007149085C68
:101240008DF80100704840690A21B0FBF1F201FB02
:1012500012006C49085C8DF800007BE088208DF856
:101260000300694800696421B0FBF1F06549085C3E
:101270008DF80200644800690A21B0FBF1F0B0FB70
:10128000F1F201FB12005F49085C8DF801005E4835
:1012900000690A21B0FBF1F201FB12005949085C18
:1012A0008DF8000056E0C3208DF803005648C06852
:1012B0006421B0FBF1F05349085C8DF802005248FC
:1012C000C0680A21B0FBF1F0B0FBF1F201FB1200A3
:1012D0004C49085C8DF801004B48C0680A21B0FBFE
:1012E000F1F201FB12004749085C8DF8000031E083
:1012F0008F208DF80300444880696421B0FBF1F031
:101300004049085C40F020008DF802003E488069AA
:101310000A21B0FBF1F0B0FBF1F201FB12003949F8
:10132000085C8DF80100384880690A21B0FBF1F2B1
:1013300001FB12003349085C8DF800000AE0082028
:101340008DF803008DF802008DF801008DF8000083
:1013500000E000BF00BF2E48007810B900202D49E2
:1013600008802C4801880088401C2A4A1080C8291F
:1013700002DD0020114608802748007830B101289E
:101380001FD002284CD003287FD164E02248007887
:10139000401C214908709DF8000020490870FE207B
:1013A00048701B480078012805D11A480088642835
:1013B00001DD0020087001220221184800F0E6FB40
:1013C00064E015480078401C134908709DF801003E
:1013D00012490870FD2048700D480078022805D198
:1013E0000C480088642801DD0020087001220221D9
:1013F0000A4800F0CBFB49E06A0000205E3A000892
:1014000016010020543A0008340200203000002069
:101410006B00002074000020730000206E0000208C
:101420001B480078401C1A4908709DF802001949B1
:101430000870FB20487018480078032805D1174829
:101440000088642801DD0020087001220221114873
:1014500000F09CFB1AE000200D4908709DF8030085
:101460000C490870F72048700B480078042805D113
:101470000A480088642801DD00200870012202214A
:10148000044800F083FB01E0FFE700BF00BF08BD98
:10149000730000206E0000206B000020740000200C
:1014A00010B50420044908700448012305220821CE
:1014B00044680348A04710BD6A000020A400002033
:1014C000552D00080149C860704700000020024007
:1014D00030B5044604254FF4302000F07BF8054673
:1014E000042D17D10C48006940F002000A49086138
:1014F00008464461006940F0400008614FF4302024
:1015000000F068F805460448006941F6FD7108409E
:1015100001490861284630BD0020024004200B49E3
:10152000C96801F0010109B101200EE00749C9684D
:1015300001F0040109B1022007E00449C96801F083
:10154000100109B1032000E0042070470020024090
:1015500078B506460C46042500200090E80200F00D
:1015600039F80546042D24D11348006940F00100E4
:10157000114908613480E80200F02CF80546042D7A
:1015800010D1B01C0090200C00990880E80200F0F7
:1015900021F805460848006941F6FE7108400649F1
:1015A000086106E00448006941F6FE7108400249FE
:1015B0000861284678BD0000002002400248034927
:1015C0004860034848607047230167450020024097
:1015D000AB89EFCD00B502460423FFF79FFF03461A
:1015E00003E0FFF79BFF0346521E012B01D1002AA7
:1015F000F7D102B90523184600BD00000548007860
:10160000401C0449087008460078042801DB0120CA
:10161000087070476B00002038B55D4800780528D9
:101620007ED2DFE800F00320314AA300594909685F
:101630008800FEF714FF04460020022302460090B3
:101640002046FFF753F853480068534908600020CC
:10165000524908600120524908704D480078401CEA
:101660004B49087091E04F4801880088401C4D4A62
:101670001080232907DB00201146088044480078A9
:10168000401C4349087080E0012001F091FF464969
:1016900008800846008845490988884207DD424895
:1016A0000088424908803C4800683C490860384846
:1016B0000078401C3649087000BF364840683649FB
:1016C0000968884207D83348006933490968081A0D
:1016D0003149086035E03148006896302F4908608C
:1016E00009688800FEF7BBFE04460020022302467C
:1016F00000902046FEF7FAFF284800680A21B0FB58
:10170000F1F02B49088020212A4800F036F900200A
:10171000294908801F48406820490968884200E03C
:1017200032E003D821480088142808DC022000F0A9
:10173000A3FEFF2000F096FE032020490870012040
:1017400038BD72B6144909688800FEF788FE044661
:1017500000200223024600902046FEF7C7FF62B633
:101760000B480078401C0A4908700EE00D480088BC
:10177000401C80B20B490880052804DB002008804B
:1017800002200349087000E000BF00BF0220D7E735
:1017900050000020DC000020580000204400002001
:1017A0005C0000205400002034000020360000209F
:1017B00016010020000801401A010020300000201E
:1017C0002DE9F041024600250026002000230024D8
:1017D000002791F803C00CF00F0591F803C00CF03E
:1017E000100CBCF1000F03D091F802C04CEA0505C3
:1017F00091F800C0BCF1000F31D0146800202BE03C
:101800004FF0010C0CFA00F3B1F800C00CEA03062B
:101810009E4220D183004FF00F0C0CFA03F7BC431B
:1018200005FA03FC4CEA040491F803C0BCF1280F4C
:1018300006D14FF0010C0CFA00FCC2F814C00AE00B
:1018400091F803C0BCF1480F05D14FF0010C0CFA20
:1018500000FCC2F810C0401C0828D1D31460B1F8B5
:1018600000C0BCF1FF0F34DD546800202EE000F111
:10187000080C4FF0010808FA0CF3B1F800C00CEAAC
:1018800003069E4221D183004FF00F0C0CFA03F7A0
:10189000BC4305FA03FC4CEA040491F803C0BCF114
:1018A000280F05D100F1080C08FA0CF8C2F81480D2
:1018B00091F803C0BCF1480F07D100F1080C4FF0BC
:1018C000010808FA0CF8C2F81080401C0828CED392
:1018D0005460BDE8F0810000F0B50A460023002402
:1018E0000021002500F00046B6F1004F02D11D4E48
:1018F000F16901E01B4E7168C0F3034583B200F447
:101900004016B6F5401F08D121F07061154E76687B
:1019100026F07066134F7E6012E000F48016B6F574
:10192000801F06D1032606FA05F4A14341F0706139
:1019300006E0460D360103FA06F6B14341F0706148
:1019400022B1460D360103FA06F6314300F0004697
:10195000B6F1004F02D1034EF16101E0014E71601A
:10196000F0BD0000000001400246002093680B40DB
:101970000BB1012000E00020704741617047016118
:101980007047000010B5064B064C2478195D064BD5
:101990005B5C034CE25C02EBC103D8B210BD0000FB
:1019A0006B3A0008940000209500002002464FF496
:1019B000A57002FB00F1C81701EB1050C0F30F3007
:1019C0007047000010B5044614B1012C20D10EE080
:1019D00080211148FFF7D1FF012001F02CFD80216B
:1019E0000D48FFF7CCFF012001F025FD11E04FF479
:1019F00080610948FFF7C1FF012001F01CFD4FF491
:101A000080610548FFF7BBFF012001F014FD00E0F5
:101A100000BF00BF10BD0000000C014008B501214F
:101A2000082000F0AFF910208DF8030002208DF897
:101A30000200C001ADF8000069462748FFF7C0FE6C
:101A40008020ADF8000069462348FFF7B9FE40202A
:101A5000ADF8000069462048FFF7B2FE4FF48071F0
:101A60001D48FFF78AFF80211B48FFF786FF4021B2
:101A70001948FFF782FF0121082000F083F91020A8
:101A80008DF8030002208DF802008002ADF80000FE
:101A900069461148FFF794FE4FF48060ADF80000EE
:101AA00069460D48FFF78CFE4FF49050ADF80000EA
:101AB00069460948FFF784FE4FF400610648FFF7C6
:101AC0005CFF4FF480610448FFF757FF4FF400714B
:101AD0000148FFF752FF08BD000C014070B50546F4
:101AE0000E4616B1012E4CD124E000241FE005F073
:101AF000800020B140212448FFF741FF03E040214E
:101B00002148FFF73AFF4FF480711F48FFF735FF78
:101B1000012001F090FC4FF480711B48FFF72FFF6C
:101B2000012001F088FC6806050E601CC4B2082C78
:101B3000DDDB27E0002421E005F0800028B14FF430
:101B400000711148FFF71BFF04E04FF400710E48CD
:101B5000FFF713FF4FF400610B48FFF70EFF012062
:101B600001F069FC4FF400610748FFF708FF01200E
:101B700001F061FC6806050E601CC4B2082CDBDBBA
:101B800000E000BF00BF70BD000C01402DE9F04136
:101B900006460F46154615B1012D1CD10DE0002457
:101BA00005E0305D2946FFF799FF601CC4B2BC42D6
:101BB000F7DB2846FFF706FF0EE0002405E0305D66
:101BC0002946FFF78BFF601CC4B2BC42F7DB2846F6
:101BD000FFF7F8FE00E000BF00BFBDE8F08100BFE6
:101BE000FEE7704710B5FEF77DFEFEF71FFEFFF71C
:101BF00017F901210348FFF707F901210248FEF711
:101C000060FF10BD080002400024014000BFFEE755
:101C10007047000070B5002100230F22C47804B380
:101C2000154C246804F4E064C4F5E064210AC1F1B1
:101C30000403CA40447804FA03F184781440214331
:101C400009010E4C0678A155047804F01F05012403
:101C5000AC4005786D11AD0005F1E025C5F80041F7
:101C600009E0047804F01F050124AC40044D067817
:101C7000761145F8264070BD0CED00E000E400E070
:101C800080E100E002490143024A11607047000010
:101C90000000FA050CED00E0024A0A400243024B44
:101CA0001A60704780FFFF1F08ED00E030B5054661
:101CB000002400BF1EE01148005DC8B11048006854
:101CC00000EB0410C068401C0D49096801EB0411C9
:101CD000C8600B48006800EB0410C0680849096838
:101CE00001EB04118968884202D9204600F068FCA3
:101CF000601CC4B2092CDEDB30BD0000AC0100204A
:101D0000A000002010B5FFF73DFE044644B1204678
:101D1000FEF772FF0349096801EB04110868804768
:101D200010BD0000A0000020704700000146002008
:101D3000034A506820F44040084350607047000058
:101D40000010024029B1064A52690243044B5A610D
:101D500004E0034A52698243014B5A617047000014
:101D60000010024029B1064AD2690243044BDA61ED
:101D700004E0034AD2698243014BDA6170470000F4
:101D80000010024029B1064A92690243044B9A614D
:101D900004E0034A92698243014B9A617047000054
:101DA0000010024029B1064AD2680243044BDA60AF
:101DB00004E0034AD2688243014BDA6070470000B6
:101DC0000010024010B500F0F5FF10BD30B5002145
:101DD0000022002400232D4D6D6805F00C0121B177
:101DE000042905D0082923D105E0294D056022E00A
:101DF000274D05601FE0254D6D6805F47012234DD9
:101E00006D6805F48034022505EB92421CB9214D22
:101E1000554305600BE01D4D6D6805F400351DB19F
:101E20001C4D5543056002E0194D5543056002E025
:101E3000174D056000BF00BF144D6D6805F0F0013F
:101E40000909154D6B5C0568DD4045600F4D6D68F7
:101E500005F4E061090A104D6B5C4568DD40856062
:101E60000A4D6D6805F46051C90A0B4D6B5C4568FD
:101E7000DD40C560054D6D6805F44041890B074D97
:101E80006B5CC568B5FBF3F5056130BD0010024021
:101E900000127A0000093D00060000201600002014
:101EA00030B50E4C246804EB011420600B4C246800
:101EB00004EB01142171094C246804EB01146371D3
:101EC000064C246804EB0114A2600024034D2D6825
:101ED00005EB0115EC60024C615430BDA000002000
:101EE000AC0100207047000005480078401C044900
:101EF000087008460078052801DB0120087070474B
:101F00006B00002038B523480088401C2149088018
:101F100008460088C8280ED11F4909688800FEF7C6
:101F20009EFA044600200223024600902046FEF757
:101F30006DFB022038BD17480088B0F5967F0AD1A6
:101F400040211648FFF71BFD642000F0A1FA00F0C5
:101F5000A9FF0220EEE70F480088B0F59B7F08D16B
:101F600020210E48FFF70BFD01200D4908700220CB
:101F7000E0E70B480078022801D10020DAE70548A5
:101F8000008842F21071884202DB0846014908804D
:101F90000220CFE75E000020DC00002000080140A6
:101FA0003C00002001464FF41650A1F108020B2A14
:101FB00025D2DFE802F00624090C0F1215181B1EAB
:101FC00021004FF496601BE04FF4166018E04FF4C8
:101FD000965015E04FF4165012E04FF496400FE083
:101FE0004FF416400CE047F6442009E04FF4E1308E
:101FF00006E04FF4613003E04FF4E12000E000BF61
:1020000000BF704701460020032901D100BF00E056
:1020100000BF00BF70470146002021B1012904D054
:10202000022908D104E0002006E04FF4C06003E07C
:102030004FF4806000E000BF00BF70470146002001
:1020400021B1012904D0022908D104E0002006E0D2
:102050004FF4405003E04FF4005000E000BF00BFD9
:10206000704738B504464FF4C060FFF70BFE2620DA
:102070008DF8000001208DF801008DF8020000208D
:102080008DF803006846FFF7C5FD38BD38B5044636
:102090004FF4C060FFF7F6FD26208DF80000012008
:1020A0008DF801008DF802008DF803006846FFF7F7
:1020B000B1FD38BD1CB504460C4903C9CDE900018A
:1020C000022C02D04FF0FF301CBD2046FFF7C9FFA5
:1020D00001F068F86946064801F00FF801F068F968
:1020E0002046FFF7D3FF0020EEE700006C3B00081E
:1020F000004400400146022902D04FF0FF307047F3
:102100000020FCE770B504460D46022C02D04FF0CB
:10211000FF3070BD2046FFF7A4FF2946044800F0B9
:10212000ECFF01F045F92046FFF7B0FF0020F0E793
:10213000004400400146022902D04FF0FF307047B2
:102140000020FCE710B50446022C02D04FF0FF300F
:1021500010BD40F22551664800F0FAFFD0B140F2C0
:102160002551634800F0AEFF62484068322807D22C
:102170005F4801F017F9C1B25E4842684A308154A5
:102180005C484068401C5B494860032048700A2056
:102190004861A0E04FF45871554800F0D9FF40B1B4
:1021A000534801F0FFF84FF45871514800F08AFF8E
:1021B00091E008214E4800F0CBFF38B14C4801F0C7
:1021C000F1F808214A4800F07DFF84E040F22771D1
:1021D000474800F0BDFF18B340F22771444800F0B3
:1021E00071FF4448806843490969884207D24148E1
:1021F00082681830815C3E4801F0F0F80AE0002265
:1022000040F227713A4801F027F8012039498870D7
:102210000520C87037488068401C364988605AE0FD
:1022200040F64601324800F093FF28B140F64601DF
:102230002F4800F047FF4EE040F66A112C4800F0AE
:1022400087FF28B140F66A11294800F03BFF42E0C1
:102250006021274800F07CFF20B16021244800F075
:1022600031FF38E04FF41871214800F071FF28B1B8
:102270004FF418711E4800F025FF2CE04FF4B071A8
:102280001B4800F065FF28B14FF4B071184800F00A
:1022900019FF20E02821164800F05AFF20B128211C
:1022A000134800F00FFF16E040F22661104800F0DE
:1022B0004FFF28B140F226610D4800F003FF0AE00D
:1022C00040F224410A4800F043FF20B140F224418B
:1022D000074800F0F7FE262000F01F020121914080
:1022E000054A430942F8231000BF002030E70000F0
:1022F00000440040B801002080E200E070B50446D0
:102300000D461646022C02D04FF0FF3070BD0A4831
:10231000407804280DD1084800F14A01C2682846D7
:10232000FDF7AAFF044880893080002002494870E8
:10233000ECE74FF0FF30E9E7B80100207CB5054637
:102340000C46174903C9CDE90001052C18D2DFE876
:1023500004F003070B0F130010208DF8000013E0AA
:102360000F208DF800000FE00E208DF800000BE02C
:102370000D208DF8000007E00C208DF8000003E030
:102380000C208DF8000000BF00BF022D02D04FF0DE
:10239000FF307CBD69462846FFF7B4FE0020F8E711
:1023A000743B000810B5044613484078032810D148
:1023B0001148406928B110484069401E0E494861E3
:1023C00007E004200C49487008464068C86000F0E7
:1023D000EFFF0948807801280CD10748C07820B960
:1023E00002200549887000F0E3FF0348C078401ED2
:1023F0000149C870002010BDB801002070B5044626
:102400000E461546022C02D04FF0FF3070BD002062
:10241000124988602A46314610481830FDF72CFFD3
:102420000E48056100F0DEFF002240F227710C48E3
:1024300000F012FF094882681830815C084800F0FB
:10244000CDFF06488068401C04498860012240F2A4
:102450002771034800F000FF0020D7E7B8010020F3
:102460000044004003490988FF2901D00149088040
:10247000704700007C000020014908707047000090
:102480003100002001490870704700006A000020F8
:102490001FB50446C4EB044042F2107190FBF1F00A
:1024A00080B2ADF806007020ADF800000120ADF854
:1024B00002000220ADF808006946054800F006FD5C
:1024C0000821034800F054FD024804801FBD0000AD
:1024D000000400401A01002010B500F001F810BD02
:1024E0000CB50020019000903348006840F4803023
:1024F0003149086000BF3048006800F400300090A7
:102500000198401C0190009818B90198B0F5A06F8F
:10251000F1D12948006800F4003010B1012000908A
:1025200001E0002000900098012843D12348006872
:1025300040F01000214908600846006820F00300C0
:1025400008600846006840F0020008601A484068C9
:10255000194948600846406848600846406840F4A9
:10256000806048600846406820F47C104860084657
:10257000406840F4E81048600846006840F0807009
:10258000086000BF0C48006800F000700028F9D017
:102590000948406820F00300074948600846406841
:1025A00040F00200486000BF0348406800F00C00A3
:1025B0000828F9D10CBD00000010024000200240A4
:1025C0000B4901EBE00109780A4A12781143094AE4
:1025D0001170094901EBE001097800F00702044B92
:1025E0009A5C1143044A02EBE0021170704700004C
:1025F000633A0008940000209500002010B54FF4C5
:1026000080414803FFF748FB10BD000010B50024CF
:10261000FE48007800B110BD00F0D6FF0446012C42
:1026200001D0042C02D10120FFF71CFFF8480078EC
:1026300009287DD2DFE800F0051B87F6F4F3F2F1FC
:10264000F000012C07D10520FFF71CFF0120F14904
:102650000870EF490870042C08D10620FFF712FF1C
:102660000120EC4908700220E949087054E3012C6C
:1026700001D1FEF7C3FF022C24D1E64800780128DF
:1026800004D1E54880680A30E3498860E148007871
:10269000022804D1E04880686430DF498860DD4862
:1026A0000078032805D1DC48806800F57A70DA49A3
:1026B0008860D9488068B0F57A7F03D34FF47A7088
:1026C000D5498860032C23D1D2480078012804D151
:1026D000D14880680A38D0498860CE4800780228FE
:1026E00004D1CD4880686438CB498860C9480078F7
:1026F000032805D1C8488068A0F57A70C64988606B
:10270000C5488068B0F57A7F02D30020C24988604E
:10271000042C17D10020BE490870FFF7B3FE00203B
:10272000BC490870BC488068BC4988601C2200E035
:10273000F1E2B949B948FDF79FFD0722B749B8480A
:1027400000F0DDFEE8E2012C01D1FEF757FF022C7C
:1027500023D1B0480078012804D1AF484069401C1B
:10276000AD494861AB480078022804D1AA484069C5
:102770000A30A9494861A7480078032804D1A6482F
:1027800040696430A4494861A348406940F2E73198
:10279000884202D30846A0494861032C23D19D48B2
:1027A0000078012804D19C484069401E9A4948613C
:1027B00098480078022804D1974840690A38964919
:1027C000486194480078032804D1934840696438EC
:1027D000914948619048406940F2E731884202D30C
:1027E00000208D494861042C15D1002088490870CB
:1027F000FFF748FE002087490870874840698749ED
:1028000048611C2284498548FDF736FD072283492B
:10281000834800F074FE7FE27CE202E287E10DE192
:102820007FE0FFE7012C01D1FFF75EFB022C2FD1E7
:1028300078480078012804D17748006864307649E8
:10284000086074480078022805D17348006800F5D4
:102850007A70714908606F480078032806D16E4885
:10286000006842F2107108446B49086069480078BA
:10287000042804D1664908700220FFF703FE664869
:10288000006847F23051884202D308466249086026
:10289000032C30D15F480078012804D15E480068DD
:1028A00064385D4908605B480078022805D15A48C1
:1028B0000068A0F57A7058490860564800780328E7
:1028C00006D155480068A0F51C50103852490860E0
:1028D00050480078042805D107204D490870092088
:1028E000FFF7D0FD4C48006847F23051884202D3D0
:1028F000002049490860042C12D10820444908707E
:102900000A20FFF7BFFD0020424908701C224249FF
:102910004248FDF7B1FC07224049414800F0EFFD75
:10292000FAE1012C01D1FFF7DFFA022C30D139484E
:102930000078012804D1384840686430364948603E
:1029400034480078022805D13348406800F57A7091
:10295000314948602F480078032806D12E48406846
:1029600042F2107108442C4948602A480078042833
:1029700005D10720FFF786FD052025490870264868
:10298000406847F23051884202D3084622494860E5
:10299000032C30D11F480078012804D11E4840681C
:1029A00064381D4948601B480078022805D11A4840
:1029B0004068A0F57A7018494860164800780328E6
:1029C00006D115484068A0F51C50103812494860DF
:1029D00010480078042805D10120FFF753FD03209B
:1029E0000B4908700C48406847F23051884202D3C6
:1029F000002009494860042C1FD1082004490870B0
:102A00000A20FFF73FFD002002490BE030000020C4
:102A10007E0000206B00002034020020DC0000203B
:102A200000E0000808701C22BD49BE48FDF724FCE8
:102A30000722BC49BC4800F062FD6DE1012C01D1C8
:102A4000FFF752FA022C2DD1B8480078012804D1A2
:102A5000B3480069401CB2490861B44800780228B4
:102A600004D1AF4800690A30AD490861AF48007829
:102A7000032804D1AA4800696430A9490861AB4819
:102A80000078042805D10820FFF7FCFC0620A8499F
:102A90000870A348006940F2E731884202D3084633
:102AA0009F490861032C2CD1A0480078012804D14B
:102AB0009B480069401E9A4908619C48007802289A
:102AC00004D1974800690A38954908619748007809
:102AD000032804D1924800696438914908619348F9
:102AE0000078042804D1924908700220FFF7CAFC3C
:102AF0008B48006940F2E731884202D300208849C0
:102B00000861042C12D10820894908700A20FFF7B7
:102B1000B9FC0020854908701C2281498148FDF7D5
:102B2000ABFB07227F49804800F0E9FCF4E0012C70
:102B300001D1FFF7D9F9022C2DD17C48007801286A
:102B400004D17748C068401C7549C8607748007850
:102B5000022804D17248C0680A307149C8607348BD
:102B60000078032804D16E48C06864306C49C8609E
:102B70006E480078042805D10920FFF783FC072060
:102B80006B4908706648C06840F2E731884202D35A
:102B900008466349C860032C2DD164480078012899
:102BA00004D15F48C068401E5D49C8605F48007836
:102BB000022804D15A48C0680A385949C8605B489D
:102BC0000078032804D15648C06864385449C86066
:102BD00056480078042805D10720FFF753FC05204C
:102BE000534908704E48C06840F2E731884202D32A
:102BF00000204B49C860042C12D108204C490870B1
:102C00000A20FFF73FFC0020484908701C22444975
:102C10004448FDF731FB07224249434800F06FFC6E
:102C20007AE0012C01D1FFF75FF9022C2DD13F484A
:102C30000078012804D13A488069401C38498861ED
:102C40003A480078022804D1354880690A3034496E
:102C5000886136480078032804D13148806964309F
:102C60002F49886131480078042805D10120FFF7F9
:102C700009FC03202E49087029488069B0F57A7F45
:102C800003D34FF47A7026498861032C2CD127484E
:102C90000078012804D122488069401E20498861BB
:102CA00022480078022804D11D4880690A381C494E
:102CB00088611E480078032804D119488069643867
:102CC0001749886119480078042805D10620184959
:102CD00008700820FFF7D6FB11488069B0F57A7FAD
:102CE00002D300200E498861042C12D1082010491B
:102CF00008700A20FFF7C6FB00200C4908701C2250
:102D000007490848FDF7B8FA07220649064800F0C7
:102D1000F6FB01E000E000BF00BF00BF7BE4000065
:102D200034020020DC00002000E000086B000020DE
:102D30007E00002008B54FF46040ADF80000482048
:102D40008DF8030069460248FEF73AFD08BD000011
:102D5000000C014010B5012000F02AFC0249088057
:102D600000F0F0FC10BD00006C00002010B50E4813
:102D7000C168012088470D480078012806D1FEF778
:102D80004BFC012802D1022008490870084801685C
:102D90000068401C064A1060042904D30020114634
:102DA0000860FEF72FF910BDA40000203C000020B1
:102DB0000000002010B51348006840F001001149E0
:102DC000086008464068104908400E4948600846B7
:102DD00000680E4908400B4908600846006820F466
:102DE000802008600846406820F4FE0048604FF4E8
:102DF0001F008860FFF770FB4FF000600449086017
:102E000010BD0000001002400000FFF8FFFFF6FEBA
:102E100008ED00E030B589B005460C4601210220DE
:102E2000FEF7A0FF01210920FEF7ACFF01211A489F
:102E3000FEF752FD2020ADF8200018208DF8230069
:102E400003208DF8220008A91448FEF7B9FCADF85C
:102E50001850ADF814400020ADF81A00ADF8160077
:102E600005A90F4800F092F84FF43770ADF80A004A
:102E70007020ADF804000120ADF806000220ADF886
:102E80000C0001A9064800F021F80821044800F0D0
:102E90006FF809B030BD000000081A00000C0140B6
:102EA0000004004010B50121014800F003F810BDF6
:102EB0000004004021B1028842F00102028004E0D7
:102EC00002884FF6FE731A400280704770B50024E6
:102ED00000220023058C4FF6EF7635400584028CE6
:102EE0008388048B48F6FF752C404FF6FF452C4035
:102EF0000D884FF6FF7606EA05252C434FF6DF7561
:102F00002A400D8906EA05152A434D8806EA05156B
:102F10002A43154DA84202D0144DA8421DD14FF6A8
:102F20007F752A404D894FF6FF7606EA05152A433C
:102F30004FF6BF752A408D8806EA05152A434FF6DD
:102F4000FF352B404FF2FF752B408D8906EA850532
:102F50002B43CD8906EA85052B4383800483CD88E6
:102F60000587028470BD0000002C01400034014040
:102F70000A460021018B4FF2FF7319404FF6FF7391
:102F800003EA0223194301837047000000220288EC
:102F90001D4B98420ED01D4B98420BD0B0F1804F84
:102FA00008D01B4B984205D01A4B984202D01A4BBE
:102FB000984204D14FF68F731A404B881A43174B2F
:102FC000984207D0164B984204D04FF6FF431A4060
:102FD000CB881A4302808B8883850B8803850A4B34
:102FE00098420BD0094B984208D00E4B984205D01E
:102FF0000D4B984202D00D4B984201D10B7A0386BB
:103000000123838270470000002C014000340140FE
:103010000004004000080040000C00400010004088
:1030200000140040004001400044014000480140BD
:1030300008B54FF4C870ADF8000048208DF80300C3
:1030400003208DF8020069460D48FEF7B9FB6020A9
:10305000ADF8000010208DF8030003208DF8020069
:1030600069460748FEF7ACFB40210548FEF785FCA2
:1030700020210348FEF781FC00200249088008BD9A
:10308000000801401A01002010B5FFF7BFFAFDF754
:1030900077FD10BD10B5044801230A2203214468BE
:1030A0000248A04710BD0000A4000020893000089D
:1030B0007047000010B5024881690220884710BDA2
:1030C000B800002010B50022002340F66A14A14287
:1030D00000D100BF0A1201249440A3B2DC43048053
:1030E00010BD21B1828942F40052828104E08289BC
:1030F0004DF6FF731A40828170477FB506460C4635
:1031000025462878FEF74EFF00906878FEF77AFF94
:10311000ADF80400E878FEF791FF80B2ADF8060044
:10312000A878FEF778FF80B2ADF808000020ADF86F
:103130000C000C20ADF80A006946304600F0B2F8E9
:10314000304600F01BF901213046FFF7CAFF7FBD72
:1031500070B50246002400230025002040F66A16C0
:10316000B14200D100BFC1F3421501F01F03012697
:1031700006FA03F3012D02D19689334006E0022DB1
:1031800002D1168A334001E0968A33400C120126A0
:1031900006FA04F41688344013B10CB1012000E0A3
:1031A000002070BD08B503208DF802000420ADF8A2
:1031B000000018208DF8030069462548FEF700FB43
:1031C0000820ADF8000004208DF80300694620486F
:1031D000FEF7F6FA4FF40070ADF8000018208DF8F5
:1031E000030069461A48FEF7EBFA4FF48060ADF829
:1031F000000004208DF8030069461548FEF7E0FA48
:103200001020ADF800008DF8030069461048FEF765
:10321000D7FA0820ADF8000014208DF803006946A5
:103220000C48FEF7CDFA1020ADF800008DF8030031
:1032300069460848FEF7C4FA4FF40050ADF80000A4
:1032400004208DF8030069460248FEF7B9FA08BD6C
:1032500000080140000C0140F0B5034600240026A0
:103260000025002040F66A17B94200D100BF184679
:10327000C1F3421401F01F06012707FA06F5012CDD
:1032800001D10C3004E0022C01D1103000E01430E8
:103290001AB107682F43076002E00768AF43076071
:1032A000F0BD00002DE9F04786B005460E4600242B
:1032B000A24600BFA1460027B08900B100BF2F463B
:1032C0002C8A4CF6FF700440F08804432C82AC89B1
:1032D0004EF6F3100440B0883189084371890843E1
:1032E0000443AC81AC8A4FF6FF400440B0890443EC
:1032F000AC8201A8FEF76AFD1F48874202D1DDF8C3
:1033000010A001E0DDF80CA0A88900F4004040B155
:103310000AEBCA0000EB0A1031684900B0FBF1F873
:1033200007E00AEBCA0000EB0A1031688900B0FB25
:10333000F1F86420B8FBF0F004012009642101FBDE
:103340001089A88900F4004040B1322000EBC90088
:10335000B0FBF1F000F00700044308E0322000EB7E
:1033600009106421B0FBF1F000F00F0004432C8140
:1033700006B0BDE8F08700000038014010B50446F3
:10338000012240F225512046FFF766FF012260210D
:103390002046FFF761FF01224FF458712046FFF7E6
:1033A0005BFF10BD01468888C0F30800704700002D
:1033B00010B5002006494860012240F22551054819
:1033C000FFF74AFF02210448FEF7D7FA10BD0000BC
:1033D000B80100200044004000080140C1F3080289
:1033E0008280704710B502210148FEF7C8FA10BD6F
:1033F0000008014000BFFEE702E008C8121F08C134
:10340000002AFAD170477047002001E001C1121F65
:10341000002AFBD17047002000BF01E0411C88B2A8
:1034200041F288318842F9DB704701E0411E88B2E1
:103430000028FBDC704701E0411E88B20028FBD168
:103440007047000000B587B0072269460B4800F0BE
:103450003DF80098401C28B907220949074800F0A8
:103460004EF804E01C2269460548FCF705FF1C22C3
:1034700003490448FCF700FF07B000BD00E0000866
:10348000DC0000203402002010B50022002000BF24
:1034900014E0002107E00B4B03EBC10333F81030BD
:1034A0001A444B1CD9B20A29F5DB0A23B2FBF3F309
:1034B000054C24F810300022431CD8B20428E8DB65
:1034C00010BD000050020020080100202DE9F0414D
:1034D00003460C4603EB820501260021002719460E
:1034E00006E0D1F8008038467F1C44F82080091D92
:1034F000A94201D2002EF4D10020BDE8F0812DE9CF
:10350000FC5F04460E46174604EB87080020009037
:10351000814600254FF0010BFEF750F8A8EB0400A0
:10352000012101EB902000903520FDF7CBFF042016
:10353000019000BF08E04FF4806101FB0940FDF7F6
:10354000C7FF019009F101090098814503D29DF858
:1035500004000428EFD025464FF0000A09E0504649
:103560000AF1010A56F820102846FDF7F1FF0190F4
:103570002D1D454503D29DF804000428EFD02546B3
:103580004FF0000A0DE02A6850460AF1010A56F889
:103590002000824204D04FF0000B0120BDE8FC9FC8
:1035A0002D1D454502D2BBF1000FECD10020F5E7FF
:1035B00010B50446FFF768FF024931F81400FEF722
:1035C000F5F910BD0801002010B5484800784849B9
:1035D00008704FF400514748FEF7C6F94349087098
:1035E0000846007858B944480088401C4249088081
:1035F00008460088C82802D10880042010BD3C4835
:10360000007898B93948007801280FD13A480088E5
:10361000022808DD38480088C82804DA0020364926
:1036200008800120EAE70020334908803348007809
:103630003349087033480078334908704FF48041AB
:103640002C48FEF791F92D4908704FF400412948A4
:10365000FEF78AF92B49087028480078012809D11B
:1036600008460078012805D100202849088028490B
:103670000870C3E725480088401C244908801F487B
:10368000007838B91E480078012803D10846008820
:10369000204908801B48007838B91B480078012869
:1036A00003D11A4800881C49088014480078D0B912
:1036B00014480078B8B91648007890B90120144928
:1036C00008701448008814490988884201DD0220E6
:1036D00094E71048008810490988884203DA0320DB
:1036E0008CE700208AE7002088E70000880000209F
:1036F0008B000020000C0140820000208900002087
:103700008C0000208A0000208D0000208000002016
:103710007F000020840000208600002010B580215A
:103720000748FEF721F908B9012010BD4FF4807158
:103730000348FEF719F908B90120F6E70020F4E77D
:103740000008014010B578480088B0F59B7F06DB83
:10375000002076490870487010208870DEE07248BA
:103760000088B0F5967F06DB00207049087048702D
:1037700030208870D2E06C480088B0F5917F06DB7D
:1037800000206A490870487070208870C6E066485A
:103790000088B0F58C7F06DB002064490870487013
:1037A000F0208870BAE060480088B0F5827F07DBBF
:1037B00000205E49087001204870F0208870ADE05C
:1037C00059480088FA2807DB002058490870032070
:1037D0004870F0208870A1E053480088F02807DB8B
:1037E00000205249087007204870F020887095E04A
:1037F0004D480088DC2807DB00204C4908700F206A
:103800004870F020887089E047480088D22807DB9C
:103810000020464908701F204870F02088707DE025
:1038200041480088BE2807DB0020404908703F203F
:103830004870F020887071E03B480088C32807DB9F
:1038400000203A4908707F204870F020887065E0B9
:1038500035480088C02807DB002034490870FF2065
:103860004870F020887059E02F480088BE2807DD96
:1038700001202E490870FF204870F02088704DE02C
:1038800029480088B92807DB032028490870FF2051
:103890004870F020887041E023480088B42807DB96
:1038A000072022490870FF204870F020887035E01A
:1038B0001D480088AF2807DB0F201C490870FF2037
:1038C0004870F020887029E017480088A52807DB99
:1038D0001F2016490870FF204870F02088701DE0F6
:1038E00011480088A02807DB3F2010490870FF20FE
:1038F0004870F020887011E00B4800880A2807DD26
:103900007F200A490870FF204870F020887005E089
:10391000FF20064908704870F020887000220321BB
:103920000248FEF733F910BD6C0000207000002043
:1039300072B620212C48FEF720F8FDF709F9FDF7B3
:10394000E9F8FDF7FDF8FFF77DFD4FF4005126483B
:10395000FEF70AF880B9FFF75EFD4FF400512248E8
:10396000FEF702F840B90320204908700120FEF755
:1039700089FD01201E490870002203211D48FEF721
:1039800005F962B61C4800684FF47A72B0FBF2F198
:10399000B1F1807F01D301201DE021F07F40401E66
:1039A0004FF0E022506150170F22002807DA13076A
:1039B0001D0E124B00F00F04241F1D5503E01307CA
:1039C0001C0E0F4B1C5400BF00204FF0E0229061F2
:1039D00007201061002008B100BFFEE702E009499E
:1039E00008698047FBE70000000C01407E000020D2
:1039F00032000020700000201C00002018ED00E0C4
:103A000000E400E0A40000202DE9F04106460C4649
:103A1000A6F1640090FBF4F01FFA80F864250027FB
:103A200000BF11E005EB080085B209488068A84294
:103A300001D2BDE8F0812846FEF72AFD41F2883028
:103A4000FFF7F3FC781C87B2A742EBDB00BFF0E77F
:103A5000DC000020D714CD5D1E5BDB15DF5FD608D0
:103A6000CD148A01020408102040800000010002E9
:103A70000001000300010002000100040001000237
:103A80000001000300010002000100050001000226
:103A90000001000300010002000100040001000217
:103AA0000001000300010002000100060001000205
:103AB00000010003000100020001000400010002F7
:103AC00000010003000100020001000500010002E6
:103AD00000010003000100020001000400010002D7
:103AE00000010003000100020001000700010002C4
:103AF00000010003000100020001000400010002B7
:103B000000010003000100020001000500010002A5
:103B10000001000300010002000100040001000296
:103B20000001000300010002000100060001000284
:103B30000001000300010002000100040001000276
:103B40000001000300010002000100050001000265
:103B50000001000300010002000100040001000256
:103B60000001000300010002000100000F0300003B
:103B7000000000000C030000000000009C3B000857
:103B8000000000201C010000F8330008B83C0008C9
:103B90001C0100208405000008340008000000001B
:103BA00000000000000001020304010203040607F4
:103BB000080902040608000000A24A0400000000F0
:103BC00000000000010203040607080900000000CD
:103BD00000000000000000000000000000000000E5
:103BE00000000000000000000000000000000000D5
:103BF00000000000000000000000000000000000C5
:103C00000000000000000000000000B3FFFFFF0004
:103C1000000000000000BC020000000000000000E6
:103C20000000000000000000000000000000000094
:103C30000000000000000000000000001C01002047
:103C4000E31B0008A11E0008C1250008AD1C0008E8
:103C5000051D0008B5200008F520000835210008E2
:103C600005210008FD230008FD2200084521000869
:103C7000A52300083D230008E84E00002C4C00005E
:103C8000C80000000A00000014000000000000004E
:103C9000FA0000000000000000000000000000002A
:103CA0000000000000000000000000000000000014
:083CB0000000D007100E000017
:0400000508000241AC
:00000001FF
